:020000040800F2
:10000000D8090020090100081101000813010008A7
:100010001501000817010008190100080000000080
:100020000000000000000000000000001B010008AC
:100030001D010008000000001F010008A1140008B5
:100040002301000823010008230100082301000800
:1000500023010008230100083D0B0008390C0008AB
:10006000610C0008890C0008B10C0008230100088D
:1000700023010008230100082301000823010008D0
:1000800023010008230100082301000823010008C0
:10009000230100082301000823010008D90C0008EF
:1000A00023010008B51500082301000823010008FA
:1000B000E515000811160008411600082301000884
:1000C0002301000823010008230100082301000880
:1000D00023010008111D0008211D0008311D000822
:1000E000650B00082301000823010008DFF814D085
:1000F00000F01AFB00F06CF800480047992D00084A
:1001000000F07BFAD80900200648804706480047DF
:10011000FEE7FEE7FEE7FEE7FEE7FEE7FEE7FEE7B7
:10012000FEE7FEE755150008ED0000082DE9F05F39
:100130000546002092469B46884606468146402456
:100140001BE0284641464746224600F02EFA534619
:100150005A46C01A914110D311461846224600F063
:1001600015FA2D1A67EB01084F462246012000219F
:1001700000F00CFA17EB00094E41201EA4F1010417
:10018000DFDC484631462A464346BDE8F09F10B5BD
:10019000431A934209D28318881803E010F8011D0E
:1001A00003F8011D521EF9D210BD40EA01039B075E
:1001B00003D009E008C9121F08C0042AFAD203E0DC
:1001C00011F8013B00F8013B521EF9D210BD0000AE
:1001D00070B5054C054D03E0206820448047241D80
:1001E000AC42F9D170BD0000F835000808360008AF
:1001F0002DE9F041074615460E46102002F08EF814
:1002000004000AD06760C4E9026500F0F1F90168F2
:10021000216004600020BDE8F0810120FBE72DE9AA
:10022000FE4F804681EA0300C00F0C46009021F08B
:10023000004123F00045B8EB0200A94105D2404639
:10024000214690461C460B46024623F000401043D0
:1002500047D0270DC7F30A00C3F30A510290401A92
:10026000019040286BDAC3F3130040F4801B009820
:10027000924620B10023D2EB030A63EB0B0B0198EB
:100280005946C0F14002504600F080F906460D463E
:1002900050465946019A00F098F910EB0800614168
:1002A000002487EA115284EAE7731A4340D0009A87
:1002B00062B3019A012A4FEA075215DC001B61EB79
:1002C00002014FF0004202EA0752CDE90042001C51
:1002D00041F5801132462B4600F0BFF903B0BDE86E
:1002E000F08F40462146F9E7001B61EB0201001C3C
:1002F00041F5801300185B412018A2F5001747EB69
:10030000030140EAD570B6196D4111E06D084FEA5E
:10031000360645EAC0754FEA0752001B61EB020141
:10032000001C41F5801149084FEA30000019514185
:1003300032462B4603B0BDE8F04F00F07FB900987D
:10034000012240000023D0EB020263EBE07300982F
:1003500021464FEAE074B8EB000061EB0401E9E7E5
:1003600083F000435BE781F0004158E72DE9FE4F41
:1003700081EA030404F0004421F0004100944FF0AE
:10038000000B23F0004350EA01045ED052EA03045C
:100390005BD0C3F30A54C1F30A552C44A4F2F334DE
:1003A0000194A0FB0254C1F3130141F48011C3F383
:1003B000130343F4801301FB024400FB034E840A41
:1003C000970A44EA815447EA8357A4FB07680295D9
:1003D0008D0A05FB07854FEA932C04FB0C54270577
:1003E000029D4FEA065847EA1637B5EB08056EEB53
:1003F000070C870E920E47EA811742EA8312A7FB89
:100400000201B6EB0B0164EB00042B0D43EA0C3345
:100410005E1844EB1C50DA465146E7FB0201C5F377
:1004200013044FEA0B3343EA14534FEA0432019C9E
:1004300043EA0603A4F10C040294009CCDE900B445
:1004400000F00BF903B0BDE8F08F00200146F9E79A
:100450002DE9F04D81EA030404F0004B21F0004542
:1004600014464FF0000A23F0004150EA050220D064
:1004700054EA01021DD0C5F30A570246C5F313031F
:10048000C1F31300C1F30A5640F4801543F48013FE
:10049000A7EB0608101BD64608F2FD3873EB0500E3
:1004A00002D308F1010801E092185B41B8F1000F96
:1004B00003DA00200146BDE8F08D00204FF48011E2
:1004C000064684460EE0171B73EB050705D3121B87
:1004D00063EB050306434CEA010C49084FEA300080
:1004E00092185B4150EA0107EDD152EA030012D0A5
:1004F00082EA040083EA0501084305D0101BAB41E2
:1005000006D20122002306E000224FF0004302E061
:100510006FF0010253101AEB06004CEB085110EB80
:100520000A0041EB0B01BDE8F04D00F087B8000078
:1005300030B5041E71F1000404DB4FF0004440426A
:1005400064EB0101141E73F1000405DB1C464FF03F
:100550000043524263EB0403994208BF904230BD0E
:1005600030B50B46014600202022012409E021FA83
:1005700002F59D4205D303FA02F5491B04FA02F580
:100580002844151EA2F10102F1DC30BD202A04DB53
:10059000203A00FA02F1002070479140C2F1200396
:1005A00020FA03F3194390407047202A04DB203AD5
:1005B00021FA02F00021704721FA02F3D040C2F183
:1005C00020029140084319467047202A06DBCB17CA
:1005D000203A41FA02F043EAE07306E041FA02F3FE
:1005E000D040C2F1200291400843194670470000F4
:1005F00000487047B800002070472DE9F0410646DA
:10060000FFF7F6FF8046454613E016B1E068B042BA
:100610000ED120682860D4E90101D8F8007088471D
:10062000204601F04DFED8F80000B842EBD100E0C2
:1006300025462C68002CE8D1BDE8F08110B5141EC9
:1006400073F1000408DA401C41F1000192185B418B
:100650001A4301D120F0010010BD2DE9F04D924662
:100660009B4611B1B1FA81F202E0B0FA80F2203279
:100670009046FFF78BFF04460F4640EA0A0041EA26
:100680000B0153465A46084313D0114653EA010062
:1006900019D0C8F140025046FFF787FF05460E46C5
:1006A000504659464246FFF771FF084305D00120E6
:1006B00004E020463946BDE8F08D0020054346EAB7
:1006C000E0762C4337430A986305E40AA0EB080060
:1006D0000022FD0A44EA47540A3002D500200146B0
:1006E000E9E7010510196941DDE90845001969418B
:1006F000BDE8F04DA2E7C1F30A52C1F3130140F285
:10070000FF3341F480119A4202DA0020014670471B
:1007100040F233439A42A2F2334202DC5242FFF7E4
:1007200044BFFFF733BF0000064C074D06E0E0680A
:1007300040F0010394E8070098471034AC42F6D328
:10074000FFF7D8FCD8350008F8350008704721B10C
:10075000826842F00102826003E0826822F00102B6
:100760008260704710B504462848007860B90020C0
:1007700004E0FF21264A1154411CC8B21228F8DBBC
:100780000121224A117000BF24B3012C22D0022C77
:1007900020D0032C1ED0042C1CD0052C1AD0062CE3
:1007A00018D0072C16D0082C14D0092C12D00A2CE3
:1007B00010D00B2C0ED00C2C0CD00D2C0AD00E2CE3
:1007C00008D00F2C06D0102C04D0112C02D04FF0E2
:1007D000FF3010BD204600F01FF8401C10B16FF034
:1007E0000100F6E70B480078122802DB6FF00200E8
:1007F000EFE7074807490978445406480078401C49
:100800000449087008460078401EE2E70100002015
:10081000BC000020000000200246002107E007483D
:10082000405C904201D108467047481CC1B2044860
:1008300000788142F3DB4FF0FF30F5E7BC00002089
:100840000000002010B504461248844208D101215E
:10085000401500F047FC0021601500F043FC17E054
:100860000D48844208D10121001500F03BFC002115
:10087000201500F037FC0BE00848844208D1012124
:10088000C80300F02FFC00214FF4004000F02AFCC8
:1008900010BD00000024014000280140003C014040
:1008A000014600208A6802F004020AB1012000E03B
:1008B000002070470146C86C80B270470246002095
:1008C00013680B400BB1012000E000207047014687
:1008D00000208A6802F008020AB1012000E000202E
:1008E0007047000030B502460020002350680F4CCE
:1008F00020400D790C6844EA05242043506090683C
:100900000B4C2040D1E902542C434D7944EA450474
:1009100020439060D06A20F470000C7C641EE4B226
:10092000234340EA0350D06230BD0000FFFEF0FFD9
:10093000FDF7F1FFF0B504460D4600200021092D1A
:1009400011DDE068A5F10A0606EB4607072606FA60
:1009500007F18843A5F10A0606EB460603FA06F1FD
:100960000843E0600CE0206905EB4507072606FA1E
:1009700007F1884305EB450603FA06F108432061B9
:10098000072A0FDA606B561E06EB86071F2606FA4B
:1009900007F18843561E06EB860605FA06F1084362
:1009A000606322E00D2A0FDA206BD61F06EB860764
:1009B0001F2606FA07F18843D61F06EB860605FABE
:1009C00006F10843206310E0E06AA2F10D0606EB91
:1009D00086071F2606FA07F18843A2F10D0606EBEB
:1009E000860605FA06F10843E062F0BD816841F031
:1009F00008018160704721B1826842F4A0028260E0
:100A000003E0826822F4A00282607047816841F0AE
:100A100004018160704770B505460C46E1B20423BD
:100A200001222846FFF786FF01212846FFF7E3FF52
:100A300000BF02212846FFF741FF0028F9D02846D1
:100A4000FFF738FF70BD000010B586B0044625489A
:100A5000844204D10121401500F034FB11E022480A
:100A6000844204D10121001500F02CFB09E01F484D
:100A7000844204D10121C80300F024FB01E006B048
:100A800010BD4FF4004000F001FB2046FFF7DAFEF6
:100A9000002001908DF808008DF809004FF46020C7
:100AA00003900020049001208DF8140001A9204635
:100AB000FFF718FF01212046FFF749FE2046FFF708
:100AC00095FF00BF2046FFF702FF0028FAD120461D
:100AD000FFF79CFF00BF2046FFF7E2FE0028FAD197
:100AE00000BFCCE70024014000280140003C014049
:100AF00010B500F0DDFC104800684FF47A71B0FBCF
:100B0000F1F4601EB0F1807F00D30FE0601E4FF063
:100B1000E02148610F214FF0FF3001F0B9FB0020C8
:100B20004FF0E02188610720086100BF0021481EC6
:100B300001F0AEFB10BD00009400002010B500BF16
:100B4000012000F023F940B10548006810B10449C4
:100B500008688047012000F013F900BF10BD0000B5
:100B6000F400002010B500BF4FF4806000F00EF9D3
:100B700048B13048806A10B12E49886A80474FF4E6
:100B8000806000F0FDF800BF00BF4FF4006000F08F
:100B9000FDF848B12748C06A10B12649C86A8047A5
:100BA0004FF4006000F0ECF800BF00BF4FF480503D
:100BB00000F0ECF848B11F48006B10B11D49086BFC
:100BC00080474FF4805000F0DBF800BF00BF4FF4C7
:100BD000005000F0DBF848B11648406B10B11549E1
:100BE000486B80474FF4005000F0CAF800BF00BFC8
:100BF0004FF4804000F0CAF848B10E48806B10B145
:100C00000C49886B80474FF4804000F0B9F800BF72
:100C100000BF4FF4004000F0B9F848B10548C06B80
:100C200010B10449C86B80474FF4004000F0A8F8A9
:100C300000BF10BDF400002010B500BF022000F07E
:100C4000A5F840B10548406810B10449486880479C
:100C5000022000F095F800BF10BD0000F400002055
:100C600010B500BF042000F091F840B1054880683D
:100C700010B1044988688047042000F081F800BF63
:100C800010BD0000F400002010B500BF082000F0E7
:100C90007DF840B10548C06810B10449C868804774
:100CA000082000F06DF800BF10BD0000F400002027
:100CB00010B500BF102000F069F840B10548006988
:100CC00010B1044908698047102000F059F800BFAE
:100CD00010BD0000F400002010B500BF202000F07F
:100CE00055F840B12548406910B12449486980470A
:100CF000202000F045F800BF00BF402000F046F87B
:100D000040B11E48806910B11C4988698047402065
:100D100000F036F800BF00BF802000F037F840B187
:100D20001648C06910B11549C8698047802000F095
:100D300027F800BF00BF4FF4807000F027F848B1DB
:100D40000E48006A10B10D49086A80474FF4807060
:100D500000F016F800BF00BF4FF4007000F016F866
:100D600048B10648406A10B10449486A80474FF4C8
:100D7000007000F005F800BF10BD0000F400002076
:100D8000014908607047000014040140014600203A
:100D90000022074B1B6803EA0102054B14331B6852
:100DA0000B4013B10AB1012000E0002070470000A1
:100DB000000401402DE9F0410246002500260020F4
:100DC00000230024002791F803C00CF00F0591F8D0
:100DD00003C00CF0100CBCF1000F03D091F802C05E
:100DE0004CEA050591F800C0BCF1000F31D0146841
:100DF00000202BE04FF0010C0CFA00F3B1F800C01A
:100E00000CEA03069E4220D183004FF00F0C0CFA2F
:100E100003F7BC4305FA03FC4CEA040491F803C051
:100E2000BCF1280F06D14FF0010C0CFA00FCC2F8FF
:100E300014C00AE091F803C0BCF1480F05D14FF08F
:100E4000010C0CFA00FCC2F810C0401C0828D1D3D9
:100E50001460B1F800C0BCF1FF0F34DD546800200D
:100E60002EE000F1080C4FF0010808FA0CF3B1F87D
:100E700000C00CEA03069E4221D183004FF00F0C04
:100E80000CFA03F7BC4305FA03FC4CEA040491F89E
:100E900003C0BCF1280F05D100F1080C08FA0CF8CA
:100EA000C2F8148091F803C0BCF1480F07D100F1DB
:100EB000080C4FF0010808FA0CF8C2F81080401C2A
:100EC0000828CED35460BDE8F08100002DE9F84336
:100ED00005460F46164698461F48854201D1042410
:100EE0001FE01E48854201D108241AE01C488542B3
:100EF00001D1102415E01B48854201D1202410E0C7
:100F00001948854201D140240BE01848854201D19F
:100F1000802406E01648854201D1841501E0BDE831
:100F2000F8831C2E01D0182E05D144F001000121B8
:100F300000F0C8F803E00121204600F0C3F8ADF846
:100F400000708DF803608DF8028069462846FFF72F
:100F500031FF00BFE3E7000000080140000C014042
:100F6000001001400014014000180140001C014025
:100F70000020014070B5002100230F22C47804B383
:100F8000154C246804F4E064C4F5E064210AC1F15E
:100F90000403CA40447804FA03F1847814402143DE
:100FA00009010E4C0678A155047804F01F050124B0
:100FB000AC4005786D11AD0005F1E025C5F80041A4
:100FC00009E0047804F01F050124AC40044D0678C4
:100FD000761145F8264070BD0CED00E000E400E01D
:100FE00080E100E002490143024A116070470000BD
:100FF0000000FA050CED00E02DE9F04104460D4635
:101000001646702C04DA1F4800EB0410807B10B9E0
:101010000020BDE8F08135B12EB105FB06F01A497C
:101020000968884201D90020F3E72F461648006876
:10103000B0FBF5F0B0FBF6F81821204601F0BCFE3D
:10104000104901EB04114868002100F014FBDFF89F
:1010500034C00CEB041C9CF80E30A8F1010C1FFAF4
:101060008CF2A7F1010C1FFA8CF1DFF818C00CEB21
:10107000041CDCF8040000F0D9FC024800EB04106A
:10108000807BC6E7442E0008940000200146002023
:10109000034A506820F44040084350607047000005
:1010A0000010024029B1064AD2690243044BDA61BA
:1010B00004E0034AD2698243014BDA6170470000C1
:1010C0000010024029B1064A92690243044B9A611A
:1010D00004E0034A92698243014B9A617047000021
:1010E0000010024029B1064AD2680243044BDA607C
:1010F00004E0034AD2688243014BDA607047000083
:101100000010024030B500210022002400232D4DA4
:101110006D6805F00C0121B1042905D0082923D1FF
:1011200005E0294D056022E0274D05601FE0254DB3
:101130006D6805F47012234D6D6805F48034022546
:1011400005EB92421CB9214D554305600BE01D4D46
:101150006D6805F400351DB11C4D5543056002E076
:10116000194D5543056002E0174D056000BF00BFF3
:10117000144D6D6805F0F0010909154D6B5C0568AB
:10118000DD4045600F4D6D6805F4E061090A104DC2
:101190006B5C4568DD4085600A4D6D6805F4605103
:1011A000C90A0B4D6B5C4568DD40C560054D6D6837
:1011B00005F44041890B074D6B5CC568B5FBF3F541
:1011C000056130BD0010024000127A0000093D00A8
:1011D000800000209000002010B50146002200236E
:1011E00000204A11012A02D1094C236806E0022A94
:1011F00002D1074C236A01E0054C636A01F01F022B
:10120000012494401C400CB1012000E0002010BDDE
:10121000001002400248406800F00C0070470000D7
:101220000010024001460020034A506820F0F00000
:1012300008435060704700000010024011490968DF
:1012400021F480310F4A11601146096821F4802190
:101250001160B0F5803F03D0B0F5802F0ED106E0CD
:101260000849096841F48031064A116007E00549E0
:10127000096841F4A021034A116000E000BF00BFEB
:10128000704700000010024001460020034A5068E9
:1012900020F4E060084350607047000000100240F6
:1012A00001460020034A506820F4605040EAC10023
:1012B0005060704700100240014908667047000006
:1012C0000000424202460020044B586820F47C1083
:1012D00042EA01031843014B586070470010024076
:1012E00001460020034A506820F003000843506084
:1012F000704700000010024038B500200090002424
:10130000002500BF3120FFF767FF05460098401C0D
:1013100000900098B0F5A06F01D0002DF2D03120E0
:10132000FFF75AFF08B1012400E00024204638BD31
:1013300010B500F001F810BD0CB500200190009030
:101340003348006840F480303149086000BF3048BD
:10135000006800F4003000900198401C0190009853
:1013600018B90198B0F5A06FF1D12948006800F4D0
:10137000003010B10120009001E0002000900098A2
:10138000012843D12348006840F01000214908603B
:101390000846006820F0030008600846006840F036
:1013A000020008601A4840681949486008464068C9
:1013B00048600846406840F48060486008464068DD
:1013C00020F47C1048600846406840F4E81048600B
:1013D0000846006840F08070086000BF0C48006854
:1013E00000F000700028F9D00948406820F00300A0
:1013F000074948600846406840F00200486000BF66
:101400000348406800F00C000828F9D10CBD00002A
:10141000001002400020024010B504461E4850F85B
:1014200034001E4908600020FFF75AFF00BFFFF795
:10143000F1FE0028FBD1FFF7F5FE4FF48060FFF7C7
:1014400023FF0020FFF72CFF0020FFF735FF4FF4AC
:101450008030FFF7F3FEFFF74FFF0F4800EBC400AB
:1014600041684FF48030FFF72DFF0120FFF724FF84
:1014700000BF3920FFF7B0FE0028FAD00220FFF7A6
:101480002FFF00BFFFF7C6FE0828FBD10121084649
:10149000FFF718FE10BD0000080000209400002097
:1014A00002480068401C01490860704704000020A1
:1014B00010B5002100200022214B5B6803F00C01D5
:1014C00021B1042906D0082928D107E01D4B1E4C64
:1014D000236027E01B4B1C4C236023E0184B5B6808
:1014E00003F47010164B5B6803F48032022303EBA5
:1014F000904022B9154B4343134C23600DE0104B31
:101500005B6803F4003323B1104B43430E4C23605C
:1015100003E00C4B43430C4C236003E0094B0A4CA3
:10152000236000BF00BF064B5B68C3F30313084C86
:10153000E15C054B1B68CB40034C236010BD0000F1
:101540000010024000127A009400002000093D00C3
:101550009800002010B51348006840F001001149C0
:10156000086008464068104908400E49486008462F
:1015700000680E4908400B4908600846006820F4DE
:10158000802008600846406820F4FE0048604FF460
:101590001F008860FFF7CCFE4FF000600449086030
:1015A00010BD0000001002400000FFF8FFFFF6FE33
:1015B00008ED00E010B500BF0121084800F076F802
:1015C00048B10748006810B1054908688047012103
:1015D000024800F04DF800BF10BD0000002C014093
:1015E0003401002010B500BF0121880700F05EF82B
:1015F00048B10648406810B1044948688047012155
:10160000880700F035F800BF10BD0000340100204D
:1016100010B500BF0121084800F048F848B107485C
:10162000806810B10549886880470121024800F0B0
:101630001FF800BF10BD000000040040340100206E
:1016400010B500BF0121084800F030F848B1074844
:10165000C06810B10549C86880470121024800F000
:1016600007F800BF10BD0000000800403401002052
:10167000CA430282704721B1028842F0010202800F
:1016800004E002884FF6FE731A400280704731B1C1
:10169000B0F8442042F40042A0F8442005E0B0F83D
:1016A0004420C2F30E02A0F84420704730B5024631
:1016B000002000230024158A05EA0103958905EA24
:1016C000010413B10CB1012000E0002030BD000086
:1016D00070B5002400220023058C4FF6FE763540BD
:1016E0000584028C8388048B4FF68F752C40B51EC1
:1016F0002C400D882C43751E2A400D892A434D88A5
:101700002A43144DA8420BD0134DA84208D0134DC4
:10171000A84205D0124DA84202D0124DA84213D1C2
:101720004FF6F7752A404D892A434FF6FB752A403C
:101730008D882A434FF6FF652B404FF6FF552B400F
:101740008D892B43CD892B4383800483CD88858667
:10175000028470BD002C0140003401400040014073
:1017600000440140004801400A460021018B4FF629
:10177000F7731940114301837047000070B50024CE
:1017800000220023058C4FF6EF7635400584028C4D
:101790008388048B48F6FF752C404FF6FF452C409C
:1017A0000D884FF6FF7606EA05252C434FF6DF75C8
:1017B0002A400D8906EA05152A434D8806EA0515D3
:1017C0002A43154DA84202D0144DA8421DD14FF610
:1017D0007F752A404D894FF6FF7606EA05152A43A4
:1017E0004FF6BF752A408D8806EA05152A434FF645
:1017F000FF352B404FF2FF752B408D8906EA85059A
:101800002B43CD8906EA85052B4383800483CD884D
:101810000587028470BD0000002C014000340140A7
:101820000A460021018B4FF2FF7319404FF6FF73F8
:1018300003EA0223194301837047000070B50024B6
:1018400000220023058C4FF6FF6635400584028C8C
:101850008388848B4FF68F752C404FF6FC752C4097
:101860000D882C434FF6FF552A400D894FF6FF7621
:1018700006EA05252A434D8806EA05252A43154D23
:10188000A84202D0144DA8421DD14FF2FF752A4044
:101890004D894FF6FF7606EA05252A434FF6FF35B8
:1018A0002A408D8806EA05252A434EF6FF752B400F
:1018B0004DF6FF752B408D8906EA05152B43CD8922
:1018C00006EA05152B4383808483CD8885870284AF
:1018D00070BD0000002C0140003401400A46002188
:1018E000818B4FF6F77319401143818370470000D5
:1018F00070B5002200230024058C4EF6FF7635409B
:101900000584038C8488828B48F6FF752A404FF645
:10191000FF452A400D884FF6FF7606EA05252A4343
:101920004DF6FF752B400D8906EA05352B434D8892
:1019300006EA05352B430B4DA84202D00A4DA842BA
:1019400008D14BF6FF752C408D894FF6FF7606EADD
:1019500085152C4384808283CD88A0F84050038471
:1019600070BD0000002C0140003401400A460021F7
:10197000818B4FF2FF7319404FF6FF7303EA022386
:101980001943818370470000002202881D4B984252
:101990000ED01D4B98420BD0B0F1804F08D01B4B9E
:1019A000984205D01A4B984202D01A4B984204D163
:1019B0004FF68F731A404B881A43174B984207D043
:1019C000164B984204D04FF6FF431A40CB881A4377
:1019D00002808B8883850B8803850A4B98420BD045
:1019E000094B984208D00E4B984205D00D4B9842B7
:1019F00002D00D4B984201D10B7A038601238382DA
:101A000070470000002C01400034014000040040F9
:101A100000080040000C004000100040001400408E
:101A2000004001400044014000480140F0B587B04B
:101A300004460D4616461F464C48844231D0B4F148
:101A4000804F2ED04A4884422BD04A48844228D026
:101A50004948844225D04948844222D0484884429B
:101A60001FD0484884421CD04748844219D0474878
:101A7000844216D04648844213D04648844210D04F
:101A8000454884420DD0454884420AD044488442A7
:101A900007D04448844204D04348844201D007B070
:101AA000F0BD0121204600F081F8ADF81450ADF8EA
:101AB00010600020ADF81600ADF8120004A9204611
:101AC000FFF762FF7020ADF800000120ADF80200C2
:101AD0000220ADF808002548844202D029488442FB
:101AE00006D10020ADF80C00ADF80E00ADF80400F2
:101AF000012F06D0022F0DD0032F14D0042F24D194
:101B00001AE069462046FFF7E3FD08212046FFF76B
:101B10002BFE1AE069462046FFF730FE08212046DA
:101B2000FFF77EFE11E069462046FFF787FE082199
:101B30002046FFF7D3FE08E069462046FFF7D8FEAF
:101B400008212046FFF712FF00BF00BF01212046F9
:101B5000FFF791FD0548844202D00A48844203D130
:101B600001212046FFF793FD00BF98E7002C0140BC
:101B70000004004000080040000C0040001000403D
:101B80000014004000340140004C0140005001406E
:101B90000054014000180040001C0040002000409C
:101BA00000400140004401400048014070B5044637
:101BB0000D464748844204D12946C014FFF782FAF3
:101BC00084E0B4F1804F04D129460120FFF76AFA7E
:101BD0007CE04048844204D129460220FFF762FAA3
:101BE00074E03D48844204D129460420FFF75AFAA4
:101BF0006CE03A48844204D129460820FFF752FAA3
:101C000064E03748844204D129461020FFF74AFA9D
:101C10005CE03448844204D129462020FFF742FA90
:101C200054E03148844204D129464014FFF74AFA6F
:101C30004CE02E48844205D129464FF40020FFF79E
:101C400041FA43E02A48844205D129464FF48010E6
:101C5000FFF738FA3AE02748844205D129464FF485
:101C60000010FFF72FFA31E02348844204D12946BF
:101C70004020FFF717FA29E02048844204D1294682
:101C80008020FFF70FFA21E01D48844204D1294645
:101C90008015FFF707FA19E01A48844205D1294652
:101CA0004FF48030FFF70EFA10E01748844205D158
:101CB00029464FF40030FFF705FA07E01348844245
:101CC00004D129464FF48020FFF7FCF970BD0000D5
:101CD000002C01400004004000080040000C0040BF
:101CE000001000400014004000340140004C01404E
:101CF000005001400054014000180040001C00400A
:101D000000200040004001400044014000480140E4
:101D100010B5024800F03AF910BD0000540100204F
:101D200010B5024800F032F910BD0000F0010020AB
:101D300010B5024800F02AF910BD00008C02002006
:101D400010B50022002340F66A14A14200D100BF62
:101D50000A1201249440A3B2DC43048010BD21B1D7
:101D6000828942F40052828104E082894DF6FF7339
:101D70001A408281704702460020B1F5007F00D1F1
:101D800000BF13880B400BB1012000E0002070471A
:101D900070B50246002400230025002040F66A1694
:101DA000B14200D100BFC1F3421501F01F0301266B
:101DB00006FA03F3012D02D19689334006E0022D85
:101DC00002D1168A334001E0968A33400C12012674
:101DD00006FA04F41688344013B10CB1012000E077
:101DE000002070BDF0B50346002400260025002029
:101DF00040F66A17B94200D100BF1846C1F3421439
:101E000001F01F06012707FA06F5012C01D10C305D
:101E100004E0022C01D1103000E014301AB1076840
:101E20002F43076002E00768AF430760F0BD000082
:101E30002DE9F04786B005460E460024A24600BFB5
:101E4000A1460027B08900B100BF2F462C8A4CF66E
:101E5000FF700440F08804432C82AC894EF6F310E6
:101E60000440B08831890843718908430443AC8138
:101E7000AC8A4FF6FF400440B0890443AC8201A80D
:101E8000FFF740F91F48874202D1DDF810A001E0BA
:101E9000DDF80CA0A88900F4004040B10AEBCA00AC
:101EA00000EB0A1031684900B0FBF1F807E00AEBDB
:101EB000CA0000EB0A1031688900B0FBF1F8642019
:101EC000B8FBF0F004012009642101FB1089A88906
:101ED00000F4004040B1322000EBC900B0FBF1F04B
:101EE00000F00700044308E0322000EB09106421F1
:101EF000B0FBF1F000F00F0004432C8106B0BDE808
:101F0000F08700000038014001468888C0F30800CF
:101F10007047C1F3080282807047000010B50020AE
:101F200000F0ECFE0446224604A10A4800F042F903
:101F30004FF47A7000F0FCFE10BD00004144435F96
:101F400050696E204144432056616C2069733A25E4
:101F5000640D0A005401002010B50848FEF774FD16
:101F60004FF41651064800F03AF806A1044800F074
:101F700021F90021084600F01FFF10BD0024014098
:101F80005401002068656C6C6F00000070B5044659
:101F900040F225512069FFF7FBFEF8B12069FFF7F9
:101FA000B3FFC6B2218B491C88B2C11700EB516147
:101FB000C911A0EBC1118DB2608BA84204D0218B56
:101FC00004F11C0046542583606908B160698047AC
:101FD00040F225512069FFF7B3FE00BF70BD70B518
:101FE00004460D4600222946204600F001F870BD47
:101FF000F8B504460D46164603200123324629460D
:102000000090204600F002F8F8BD00002DE9F04FE6
:1020100087B004468A4615469B463F492069884258
:102020000CD1012144F20400FFF74CF84FF4007783
:102030004FF48068394E4FF0250925E03849206972
:1020400088420ED101214804FFF72CF80121042019
:10205000FFF738F804274FF00808304E4FF02609F4
:1020600012E03049206988420ED101218804FFF72F
:1020700019F801210820FFF725F84FF480674FF485
:102080000068294E4FF02709ADF8187003208DF82D
:102090001A0018208DF81B0006A93046FEF78AFEAC
:1020A000ADF8188004208DF81B0006A93046FEF715
:1020B00081FE8DF804908DF805B010988DF806001B
:1020C00001208DF8070001A8FEF754FFCDF808A005
:1020D00005F47040ADF80C0005F47060ADF8100028
:1020E00005F0F0000002ADF80E000020ADF814007D
:1020F0000C20ADF8120002A92069FFF799FE012219
:1021000040F225512069FFF76DFE01212069FFF79C
:1021100026FE07B0BDE8F08F0038014000080140FE
:102120000044004000480040000C014070B50446E7
:102130000D4600BF80212069FFF71DFE0028F9D061
:1021400029462069FFF7E5FE012070BD00BF094A5E
:1021500002600022426000BF074A02604FF47A72B8
:10216000826000BF054A0260016100224261428331
:102170000283704770350008843500084C3500082C
:1021800070B504460D4620682946426820469047AF
:1021900070BD70B505460C46002606E014F8011B1C
:1021A0002868026828469047761C20780028F5D1D8
:1021B000304670BD0FB430B5A1B0044626A80090DB
:1021C000802101A8009B259A00F04CF805460020CC
:1021D000009001A92046FFF7D3FF284621B030BC6C
:1021E0005DF814FB10B5064C046000BF054C04609C
:1021F00080F8543080F8551080F8562010BD00004B
:10220000B8350008A835000805490160002180F8AC
:10221000551080F8561000BF00BF00BF7047000087
:10222000A8350008016070472DE9F04104460D46CD
:1022300016461F46DDF81880204600F00DF80446CB
:102240000448206025716671A77184F807802046D4
:10225000BDE8F081C8350008014901607047000001
:10226000D43500087CB5044600201D4616460029DA
:102270000BD0491ECDE90041044B6A462946304641
:1022800000F09AF9009A002111707CBDE72C00083B
:1022900010B5002804DB0A07130E054A135406E0A4
:1022A0000A07140E034A00F00F031B1FD45410BD7D
:1022B00000E400E018ED00E00020FEF79DB900000A
:1022C00030B528B1144C031F002021680A4605E0F0
:1022D000084630BD9A4203D810465268002AF9D108
:1022E000002800D041680BD00468A3EB0005A5428C
:1022F00004D11B681C440346046002E0436000E014
:1023000023603AB11C68D51AA54203D115682C4444
:102310001C6052685A6030BDB00000202DE9F047C3
:1023200082460F4C10480D4E0E4F001B4FF0000818
:1023300020F007054FF0010900221146504600F039
:1023400003FD002802D1306810B10020BDE8F087FD
:102350003C60C4E90058C6F80090EDE7B4000020E6
:10236000DC030020B0000020D805002002E008C8EF
:10237000121F08C1002AFAD170477047002001E0FF
:1023800001C1121F002AFBD17047000008B50020D0
:1023900003460246014600900148FFF745FF08BD8D
:1023A000A800002000B506490648FFF7CFFE064901
:1023B0000648FFF7CBFE06490648FFF7C7FE00BDFB
:1023C000003801405401002000440040F00100208A
:1023D000004800408C02002000B506490648FFF77F
:1023E00021FF06490648FFF71DFF06490648FFF78B
:1023F00019FF00BD003001402803002000380040D4
:1024000044030020003C00406003002010B500237E
:10241000172216210448FFF7E5FE0446034A044943
:10242000FDF7E6FE10BD00007C0300200000000860
:10243000092200082DE9FF5F82B00021DDE90430A8
:10244000020DDDF840B0034318D044F61050A2F25C
:10245000FF3242431514119801281FD0A5EB0B0041
:10246000401C5FEA000A4FF000064E4FDFF838913B
:10247000B046504615D5CAF1000413E01198012466
:102480004AA3012801D16FEA0B010298119AC0E911
:102490000031C0E9024206B0BDE8F09FCBF1000078
:1024A000DFE704460021404A491842EB0450CDE9D9
:1024B000001012E0E00707D032463B46404649464E
:1024C000FDF754FF8046894632463B461046194682
:1024D000FDF74CFF06460F466410002CEAD1DDE9FB
:1024E0000401DDE90023BAF1000F06DAFDF73EFF33
:1024F00042464B46FDF73AFF05E0FDF7A9FF42468D
:102500004B46FDF7A5FF04460E460022284BFEF77A
:102510000FF803D84FF0FF30014607E00022254BAB
:1025200020463146FDF77BFEFEF7E5F8102409E072
:10253000002C0ADB0A220023FDF7F8FD039B303252
:102540001A55641E50EA0102F2D1641C039AC4F1C8
:1025500011031444119A012A03D0012208430DD11A
:102560000AE0084304D000204FF0110B119072E7ED
:10257000A3EB0B056D1E0DE05B4504DD4FF0000283
:1025800005F1010504E003DA4FF00002A5F10105B1
:10259000002AECD002981199C0E90231C0E9004547
:1025A00079E70000000014400000F03F3000000018
:1025B0000000F0430000E03F2DE9FF4F95B09B463F
:1025C0008946064600250FE2252877D100242746B4
:1025D000F84A0121059400E0044316F8013F203B2E
:1025E00001FA03F01042F7D130782A2811D06FF0A9
:1025F0002F033078A0F13002092A16D8059A44F04A
:10260000020402EB820203EB42021044761C0590A6
:10261000EFE759F8042B0592002A03DA504244F4FC
:102620000054059044F00204761C30782E2816D110
:1026300016F8010F44F004042A280DD06FF02F0281
:102640003078A0F13003092B09D807EB870302EBA0
:102650004303C718761CF3E759F8047B761C3078DF
:102660006C280FD006DC4C2817D068280DD06A28BB
:1026700014D104E0742810D07A280FD10DE044F46E
:1026800000140AE044F4801401E044F44014727829
:10269000824202D104F58014761C761C30786628BC
:1026A0000BD013DC582877D009DC002875D04528DA
:1026B000F6D04628F4D047281AD19DE118E06328C7
:1026C00035D0642879D0652812D195E1702873D06F
:1026D00008DC6728F1D069286FD06E280DD06F28EC
:1026E00006D1B5E073282CD0752875D0782874D021
:1026F0005A46179990476D1C75E1C4F302500228A1
:1027000009D003280DD0D9F8001004280DD00D6091
:1027100009F1040967E1D9F80010EA17C1E900528C
:10272000F6E7D9F800100D80F2E70D70F0E719F820
:10273000041B8DF8001000208DF80100EA460120EE
:1027400003E059F804AB4FF0FF3061074FF0000190
:1027500002D40DE008F101018846B9420FDA804544
:10276000F8DB1AF808100029F4D108E008F101019B
:1027700088468142FADB1AF808100029F6D105983C
:102780005B46A0EB080721463846179A00F094FAFA
:10279000284400EB080507E04DE029E10DE01AF8B8
:1027A000010B5A4617999047B8F10108F7D25B46DA
:1027B00021463846179A13E142E00A220092C4F3F8
:1027C00002524FF0000A022A08D059F804CB032A1B
:1027D0004FEAEC710AD00DE029E02AE009F1070187
:1027E00021F00702F2E802C1914609E00FFA8CFCE1
:1027F0004FEAEC71042A03D14FFA8CFC4FEAEC71DA
:10280000002907DA0A460021DCF1000C61EB020125
:102810002D2202E0220504D52B228DF8042001226E
:1028200003E0E20701D02022F7E7904659E00A21B1
:1028300002E010220DE010214FF0000A00910BE0A1
:1028400010224FF0000A44F004040827009203E02D
:1028500008224FF0000A0092C4F30252022A05D067
:1028600059F804CB0021032A08D009E009F1070137
:1028700021F00702F2E802C1914605E01FFA8CFC44
:10288000042A01D10CF0FF0C4FF00008220728D5D4
:10289000702806D0009B83F0100353EA0A0305D08A
:1028A0000EE040228DF80420012208E05CEA0102DB
:1028B00006D030228DF804208DF8050002229046C3
:1028C000009B83F0080353EA0A030AD15CEA010281
:1028D00001D1620705D530228DF804204FF00108A0
:1028E0007F1E582804D034A003900EA802900DE05B
:1028F00036A0F9E753466046009AFDF717FC844678
:102900000398825C0298401E029002705CEA01000B
:10291000F0D1029806A9081A00F1200A600702D532
:1029200024F4803400E00127574502DDA7EB0A00BC
:1029300000E0002000EB0A01009005984144401A95
:102940000590E00306D45B462146179A059800F0EF
:10295000B3F90544002706E001A85A46C05D17995F
:1029600090476D1C7F1C4745F6DBE0030CD55B46AA
:102970002146179A059800F09FF9054404E030209D
:102980005A46179990476D1C0099481E00900029DF
:10299000F5DC08E0029802995A460078491C029139
:1029A000179990476D1CBAF10001AAF1010AF1DCF8
:1029B00065E1000009280100303132333435363703
:1029C000383961626364656600000000303132337B
:1029D000343536373839414243444546000000001B
:1029E00000F058F90544761C307800287FF4ECADEF
:1029F00019B02846BDE8F08F620700D4062709F118
:102A0000070222F0070CFCE80223E14603F000482D
:102A10005FEA080C02D00FF2702C0DE05FEA045C54
:102A200002D50FF2682C07E05FEAC47C02D00FF2F7
:102A3000602C01E0AFF2700C4FF0FF3823F0004340
:102A4000CDF850C065280CD006DC452809D04628B2
:102A50001DD047283DD13DE0662818D067287ED19B
:102A600038E00021112F01DB112000E0781CCDE9B6
:102A7000000106A90EA8FFF7DDFCDDE90F010E9AA3
:102A800003910021009207F1010A04914DE04FF0FB
:102A900000400097CDE9011006A90EA8FFF7CAFC77
:102AA000DDE90F0203920E9B11990022DDF80CA0C4
:102AB0000093049211B9791C00EB010AB7EB0A00EC
:102AC00004D4C0F1FF3007F1010A0490AAEB07001B
:102AD000019044E0012F00DA01270021112F01DDD0
:102AE000112000E03846CDE9000106A90EA8FFF745
:102AF000A1FCDDE90F010E9A0391002104910092DF
:102B0000BA4621070CD40399514500DA8A46BAF136
:102B1000010F05DD009AAAF10101515C302908D0AE
:102B2000B84202DA10F1040F06DA0121CDE90110F2
:102B300015E0AAF10101E9E7002805DC0499014448
:102B40000491AAEB000102E0411C514500DD8A46D8
:102B50000499401A401C01904FF000400290200759
:102B600004D40198504501DBCDF8048000208DF895
:102B70004F0002980DF14F07B0F1004F25D02B20E8
:102B80000E9002984FF0020800280CDA40420290A2
:102B90002D200E9007E00A210298FDF7E1FC30316C
:102BA000029007F8011DB8F10001A8F10108F2DC5C
:102BB00002980028EFD1791E0E980870307800F046
:102BC000200040F0450007F8020D12A8C01B00F1DC
:102BD00007081498007800B1012000EB0A01019861
:102BE00001EBE07105984144401A401E0590E00356
:102BF00006D45B462146179A059800F05DF8054417
:102C00001498007818B15A46179990476D1CE00344
:102C100024D55B462146179A059800F04DF80544E7
:102C20001CE00498002807DBDDE90301884203DD8E
:102C30000098405C179901E0179930205A46904758
:102C4000049805F10105401C04900198401E019074
:102C500004D12E205A46179990476D1CBAF10001F5
:102C6000AAF1010ADDDC05E017F8010B5A461799B5
:102C700090476D1CB8F10001A8F10108F4DC5B4637
:102C80002146179A0598ABE62D0000002B000000A6
:102C9000200000002DE9F041044600251E4617469D
:102CA000880404D405E039462020B0476D1C641E1A
:102CB000F9D52846BDE8F0812DE9F041044600250C
:102CC0001E469046C80301D5302700E0202788041F
:102CD00004D505E041463846B0476D1C641EF9D561
:102CE0002846BDE8F0814A68002A06D00A68531CCD
:102CF0000B6010704868401E4860704710B504466D
:102D0000702C10DA094800EB0410C07BFF280AD0B1
:102D1000064A02EB0412D17B044A02EB04129068CB
:102D2000FDF779FE10BD0020FCE70000442E0008EE
:102D3000044A1268111800BF024A12688A42FBD383
:102D400070470000040000202DE9F0410B3020F016
:102D50000706104D19E02068B04215D3B0420AD9D9
:102D6000871B201DD4F80480FDF711FAA019C0E9D3
:102D70000078286004E060682860201DFDF707FAED
:102D8000201D2660BDE8F081251D2C68002CE2D1B5
:102D90000020F7E7B00000204FF4A060FEF722F912
:102DA0000720FEF739FBFDF7A3FEFFF7D5F800BFBC
:102DB000FFF7B4F8FCE7000070B505460C46702D2F
:102DC00000DB70BD6CB1042C0BD0282C09D0482C32
:102DD00007D0142C05D0102C03D01C2C01D0182C9B
:102DE0000CD1174A02EB05129189154A02EB051224
:102DF000032310682246FEF769F81EE0012C13D168
:102E0000702D05DA0E4800EB0510C07BFF2800D1BD
:102E1000D7E700212846FFF7CFFF094901EB05114D
:102E2000C87BFDF79FFC08E0022C06D142F210722D
:102E30004FF47A712846FEF7DFF800BFC1E70000C3
:102E4000442E00080008014000000040002401401A
:102E50000100010000080140000000400024014082
:102E6000020002010008014000000040002401406F
:102E7000040003020008014000000040002401405B
:102E80000800040300080140000000000024014085
:102E90001000000400080140000000000024014070
:102EA000200000050008014000040040002401400B
:102EB00040000106000801400004004000240140D9
:102EC0008000020700080140002C014000000000C3
:102ED000000101FF00080140002C0140000000003B
:102EE000000202FF00080140002C01400000000029
:102EF000000403FF00080140002C01400000000016
:102F0000000804FF0008014000000000000000006D
:102F1000001000FF00080140000000000000000059
:102F2000002000FF00080140000000000000000039
:102F3000004000FF00080140000000000000000009
:102F4000008000FF000C014000040040002401400C
:102F500001000308000C014000040040002401406F
:102F600002000409000C0140000000000000000005
:102F7000040000FF000C0140000000000000000001
:102F8000080000FF000C01400000000000000000ED
:102F9000100000FF000C01400000000000000000D5
:102FA000200000FF000C014000080040000000006D
:102FB000400001FF000C014000080040000000003C
:102FC000800002FF000C01400008004000000000EB
:102FD000000103FF000C0140000800400000000059
:102FE000000204FF000C014000000000000000008F
:102FF000000400FF000C0140000000000000000081
:10300000000800FF000C014000000000000000006C
:10301000001000FF000C0140000000000000000054
:10302000002000FF000C0140000000000000000034
:10303000004000FF000C0140000000000000000004
:10304000008000FF0010014000000000002401404B
:103050000100000A001001400000000000240140AF
:103060000200000B0010014000000000002401409D
:103070000400000C0010014000000000002401408A
:103080000800000D00100140000000000024014075
:103090001000000E0010014000000000002401405C
:1030A0002000000F0010014000340140000000002B
:1030B000400001FF0010014000340140000000000A
:1030C000800002FF001001400034014000000000B9
:1030D000000103FF00100140003401400000000027
:1030E000000204FF0010014000000000000000008A
:1030F000000400FF0010014000000000000000007C
:10310000000800FF00100140000000000000000067
:10311000001000FF0010014000000000000000004F
:10312000002000FF0010014000000000000000002F
:10313000004000FF001001400000000000000000FF
:10314000008000FF001401400000000000000000AB
:10315000010000FF0014014000000000000000001A
:10316000020000FF00140140000000000000000009
:10317000040000FF001401400000000000000000F7
:10318000080000FF001401400000000000000000E3
:10319000100000FF001401400000000000000000CB
:1031A000200000FF001401400000000000000000AB
:1031B000400000FF0014014000000000000000007B
:1031C000800000FF0014014000000000000000002B
:1031D000000100FF0014014000000000000000009A
:1031E000000200FF00140140000000000000000089
:1031F000000400FF00140140000000000000000077
:10320000000800FF00140140000000000000000062
:10321000001000FF0014014000000000000000004A
:10322000002000FF0014014000000000000000002A
:10323000004000FF001401400000000000000000FA
:10324000008000FF001801400000000000000000A6
:10325000010000FF00180140000000000000000015
:10326000020000FF00180140000000000000000004
:10327000040000FF001801400000000000000000F2
:10328000080000FF001801400000000000000000DE
:10329000100000FF001801400000000000000000C6
:1032A000200000FF001801400000000000000000A6
:1032B000400000FF00180140000000000000000076
:1032C000800000FF00180140000000000000000026
:1032D000000100FF00180140000000000000000095
:1032E000000200FF00180140000000000000000084
:1032F000000400FF00180140000000000000000072
:10330000000800FF0018014000000000000000005D
:10331000001000FF00180140000000000000000045
:10332000002000FF00180140000000000000000025
:10333000004000FF001801400000000000000000F5
:10334000008000FF001C01400000000000000000A1
:10335000010000FF001C0140000000000000000010
:10336000020000FF001C01400000000000000000FF
:10337000040000FF001C01400000000000000000ED
:10338000080000FF001C01400000000000000000D9
:10339000100000FF001C01400000000000000000C1
:1033A000200000FF001C014000000000003C014024
:1033B00040000004001C014000000000003C0140EF
:1033C00080000005001C014000000000003C01409E
:1033D00000010006001C014000000000003C01400C
:1033E00000020007001C014000000000003C0140FA
:1033F00000040008001C0140000000000000000064
:10340000000800FF001C0140000000000000000058
:10341000001000FF001C0140000000000000000040
:10342000002000FF001C0140000000000000000020
:10343000004000FF001C01400000000000000000F0
:10344000008000FF0020014000000000000000009C
:10345000010000FF0020014000000000000000000B
:10346000020000FF002001400000000000000000FA
:10347000040000FF002001400000000000000000E8
:10348000080000FF002001400000000000000000D4
:10349000100000FF002001400000000000000000BC
:1034A000200000FF0020014000000000000000009C
:1034B000400000FF0020014000000000000000006C
:1034C000800000FF0020014000000000000000001C
:1034D000000100FF0020014000000000000000008B
:1034E000000200FF0020014000000000000000007A
:1034F000000400FF00200140000000000000000068
:10350000000800FF00200140000000000000000053
:10351000001000FF0020014000000000000000003B
:10352000002000FF0020014000000000000000001B
:10353000004000FF002001400000000000000000EB
:10354000008000FF00000000000000002D210008A6
:1035500093210008000000000000000000000000AF
:10356000000000000000000000000000000000005B
:10357000B9220008932100080000000000000000AC
:1035800000000000B922000893210008000000009C
:10359000B9220008B9220008B9220008B92200089F
:1035A000000000000000000000000000000000001B
:1035B0000000000000000000B92200080000000028
:1035C00000000000000000000000000000000000FB
:1035D00000000000B92200080836000800000020A2
:1035E000BC0000006C230008C4360008BC000020AA
:1035F0001C0900007C230008ADEDFFFF91EDFFFFEB
:10360000D9EDFFFF09EEFFFF000000000000000001
:103610000024F4000000000000366E0100000400E9
:103620000048E80100000800005A620200000C0097
:10363000006CDC0200001000007E56030000140045
:103640000090D0030000180000A24A0400001C00F3
:1036500000B4C4040000200000C63E0500002400A1
:1036600000D8B8050000280000EA320600002C004F
:1036700000FCAC0600003000000E270700003400FC
:103680000020A10700003800000000000102030430
:1036900001020304060708090204060800A24A04FE
:1036A00000000000000000000102030406070809F2
:1036B000000000000000000000000000000000000A
:0436C0000000000006
:04000005080000ED02
:00000001FF
